:03000000020AEE03
:0C0AEE00787FE4F6D8FD75810A020AA3A7
:100AC400204300566F6C617467652053656E7369CB
:060AD4006E672E2E2E00BD
:060A4700D2A17F057E0034
:100A4D00D3EF9400EE6480948040257DFAEDD3942D
:100A5D00007480948040031D80F37DF8EDD39400E5
:100A6D007480948040031D80F3EF1F70D31E80D0DF
:010A7D002256
:0A0AFA008FB0C2A0120A47C2A12269
:0A0B04008FB0D2A0120A47C2A1224E
:100A7E008B088A09890AAB08AA09A90A1209C56056
:100A8E0013050AE50A7002050914F91209C5FF12C9
:050A9E000B0480E222C0
:100ADA007F0C120AFA7F38120AFA7F01120AFA7F89
:040AEA0080020AFA82
:1009EC00C280C281C282D2A7D2A4C2A7C2A420A5AF
:1009FC00FD30A5FDD2A6AE90C2A6AC06E41209103D
:100A0C007BE37AA579FB783F120800120944AE0704
:100A1C00EE75F00A842430FCEE75F00A84ABF074A9
:100A2C00302BFB7FC0120AFAAF04120B04AF031277
:0B0A3C000B047BFF7A0A79C4020A7EDB
:100AA300120ADA7590FFD2A5C2A6C2A4C2A77F809C
:100AB300120AFA7BFF7A0A79C7120A7E1209EC80BE
:010AC300ED45
:10080000EC4D6011E8497017ED33EC3304600DE4F2
:10081000FCFFFEFD22E933E8330470F80209B01250
:10082000097B58046009E4CC248150062850090251
:1008300009BA2840030209B7C0E0EB4A7044B98006
:1008400006D0E0FB0209A6EF4E701CBD8008EBFF4E
:10085000EAFEE9FD80EBE98DF0A4FEE5F00208E98F
:10086000E9CDF9EAFEEBFFEF89F0A4FCE5F0CE89D3
:10087000F0A42EFFE435F0CD89F0A42DFEE435F090
:100880008067EF4E7005BD80D780C3EF8BF0A4ACBE
:10089000F0EE8BF0A42CFCE435F0F8EF8AF0A42CF9
:1008A000E5F038FCE433CB8DF0A42CFCE5F03BF80C
:1008B000EE8AF0A42CFCE5F038F8E433CF89F0A4FC
:1008C0002CFCE5F038CF3400CE89F0A42FFFE5F002
:1008D0003EFEE433C98DF0A42EFEE5F039CD8AF05A
:1008E000A42FFFE5F03EFEE43DFD33D0E0FB5007D2
:1008F0000BBB000F0209BAEC2CFCEF33FFEE33FE0A
:06090000ED33FD02099237
:1009060075F020800E75F010800575F0087D007E6C
:10091600007F003392D530D5031209DEEC33401048
:10092600EF33FFEE33FEED33FDEC33FCD5F0ED2275
:0E093600E5F0247EA2D513CC92E7CDCEFF22B1
:10094400EDD2E7CD33EC3392D524814006E4FFFEAB
:10095400FDFC22FCE4CFCECDCC24E0501174FF800A
:10096400EDC3CC13CCCD13CDCE13CECF13CF0470A7
:07097400F030D5DE0209DEC0
:10097B00E9D2E7C933E833F892D5EDD2E7CD33ECC2
:07098B0033FC5002B2D5223B
:10099200EC30E7100FBF000C0EBE00080DBD0004C6
:1009A2000BEB6014A2D5EB13FCED92E7FD2274FF72
:1009B200FCFDFEFF22E480F8A2D574FF13FC7D80CB
:0309C200E480EFDF
:1009C500BB010689828A83E0225002E722BBFE0230
:0909D500E32289828A83E4932263
:0E09DE00C3E49FFFE49EFEE49DFDE49CFC222A
:00000001FF
