:030000000208DF14
:0C08DF00787FE4F6D8FD75810A02087EDF
:1008CC00577269746520496E207465726D696E612A
:0308DC006C20008D
:06080000D2A17F057E007D
:10080600D3EF9400EE6480948040257DFAEDD39476
:10081600007480948040031D80F37DF8EDD394002E
:100826007480948040031D80F3EF1F70D31E80D028
:01083600229F
:0A08EB008F90C2A0120800C2A122E3
:0A08F5008F90D2A0120800C2A122C9
:100837008B088A09890AAB08AA09A90A12089F60C6
:1008470013050AE50A7002050914F912089FFF1239
:0508570008F580E2221B
:1008B8007F0C1208EB7F381208EB7F011208EB7FE0
:0408C800800208EBB7
:0300230002085C74
:10085C00C0E0C0D075D000C005C006C0073098FD00
:10086C00AF991208F5C298D007D006D005D0D0D0D9
:02087C00E03268
:10087E001208B87BFF7A0879CC1208377589207573
:10088E008DFD75985075A890D28E7FC01208EB80A2
:01089E00FE5B
:10089F00BB010689828A83E0225002E722BBFE0257
:0908AF00E32289828A83E493228A
:00000001FF
