:03000000020CBE31
:0C0CBE00787FE4F6D8FD75810E020C7200
:100C930020430050726573737572652053656E73DC
:070CA300696E672E2E2E0082
:060C1600D2A17F057E0063
:100C1C00D3EF9400EE6480948040257DFAEDD3945C
:100C2C00007480948040031D80F37DF8EDD3940014
:100C3C007480948040031D80F3EF1F70D31E80D00E
:010C4C002285
:0A0CCA008FB0C2A0120C16C2A122C6
:0A0CD4008FB0D2A0120C16C2A122AC
:100C4D008B0C8A0D890EAB0CAA0DA90E120B5D60D3
:100C5D0013050EE50E7002050D14F9120B5DFF1252
:050C6D000CD480E2221E
:100CAA007F0C120CCA7F38120CCA7F01120CCA7F41
:040CBA0080020CCADE
:100B8400C280C281C282D2A7D2A4C2A7C2A420A515
:100B9400FD30A5FDD2A6AC90E4120AA88F0B8E0AF4
:100BA4008D098C08C2A6E4FFFE7DA07C3CAB0BAA99
:100BB4000AA909A8081208F8E4FBFA79A0784012F7
:100BC4000A017BEC7A5179B8783D1208077BBC7A2C
:100BD400747913783C120A01E4FBFA798078BF1225
:100BE4000807120ADCAE07EE75F00A842430FCEE26
:100BF40075F00A84ABF074302BFB7FC0120CCAAFC3
:100C040004120CD4AF03120CD47BFF7A0C79930238
:020C14000C4D85
:100C7200120CAA7590FFD2A5C2A6C2A4C2A77F80F9
:100C8200120CCA7BFF7A0C7996120C4D120B8480DF
:010C9200ED74
:10080000020B48E86480F8E933E83360110460F0D3
:10081000ED33EC337009E8FCE9FDEAFEEBFF22045E
:1008200060DED3EB9FEA9EE99DE8C2E78CF0C2F759
:1008300095F0400CE8CCF8E9CDF9EACEFAEBCFFB25
:10084000120B1385D0F05804700320D5B3E8047060
:10085000075002B2D5020B5292D5EC0460F7E4CCFB
:10086000C0E0C398F8603B94186008400DD0E0FBEE
:10087000020B2AE4FBFAC9FC8028E830E406E4C94C
:10088000FBE4CAFCE830E305E4C9CACBFCE8540742
:100890006010F8C3E913F9EA13FAEB13FBEC13FC4D
:1008A000D8F130F52FC3E49CFCEF9BFFEE9AFEEDF0
:1008B00099FDD0E0FBEF4E4D4C701222DB03020B92
:1008C0004FEC2CFCEF33FFEE33FEED33FDED30E764
:1008D000EB020B2AEF2BFFEE3AFEED39FDD0E0FBE9
:1008E00050130BBB0003020B52ED13FDEE13FEEF92
:0808F00013FFEC13FC020B2ABC
:1008F800EC4D6011E8497017ED33EC3304600DE4FA
:10090800FCFFFEFD22E933E8330470F8020B4812BD
:100918000B1358046009E4CC2481500628500902BE
:100928000B52284003020B4FC0E0EB4A7044B980D9
:1009380006D0E0FB020B3EEF4E701CBD8008EBFFBB
:10094800EAFEE9FD80EBE98DF0A4FEE5F00209E19D
:10095800E9CDF9EAFEEBFFEF89F0A4FCE5F0CE89DA
:10096800F0A42EFFE435F0CD89F0A42DFEE435F097
:100978008067EF4E7005BD80D780C3EF8BF0A4ACC5
:10098800F0EE8BF0A42CFCE435F0F8EF8AF0A42C00
:10099800E5F038FCE433CB8DF0A42CFCE5F03BF813
:1009A800EE8AF0A42CFCE5F038F8E433CF89F0A403
:1009B8002CFCE5F038CF3400CE89F0A42FFFE5F009
:1009C8003EFEE433C98DF0A42EFEE5F039CD8AF061
:1009D800A42FFFE5F03EFEE43DFD33D0E0FB5007D9
:1009E8000BBB000F020B52EC2CFCEF33FFEE33FE77
:0609F800ED33FD020B2AA5
:1009FE00020B52EC5D046005E859047003020B48CB
:100A0E00120B13580460F6EC4860F2EC7004FDFE15
:100A1E00FF22C860DB2481C85009C39860025006CB
:100A2E00020B4F9850CAF582E9294B4A7005AB82EA
:100A3E00020B3E75F0007C1A7880C3EF9BEE9AEDA8
:100A4E0099400DC3EF9BFFEE9AFEED99FDE842F043
:100A5E00DC23ACF0D0E0FFD0E0FED0E0FDAB822096
:100A6E00E7101BEB60BAEC2CFCEF33FFEE33FEED20
:100A7E0033FD020B2AE803F830E705C0F075F000ED
:100A8E00EF2FFFEE33FEED33FD40B830E7C280AA04
:100A9E0075F020800E75F010800575F0087D007ED3
:100AAE00007F003392D530D503120B76EC33401015
:100ABE00EF33FFEE33FEED33FDEC33FCD5F0ED22DC
:0E0ACE00E5F0247EA2D513CC92E7CDCEFF2218
:100ADC00EDD2E7CD33EC3392D524814006E4FFFE12
:100AEC00FDFC22FCE4CFCECDCC24E0501174FF8071
:100AFC00EDC3CC13CCCD13CDCE13CECF13CF04700E
:070B0C00F030D5DE020B768C
:100B1300E9D2E7C933E833F892D5EDD2E7CD33EC28
:070B230033FC5002B2D522A1
:100B2A00EC30E7100FBF000C0EBE00080DBD00042C
:100B3A000BEB6014A2D5EB13FCED92E7FD2274FFD8
:100B4A00FCFDFEFF22E480F8A2D574FF13FC7D8031
:030B5A00E480EF45
:100B5D00BB010689828A83E0225002E722BBFE0296
:090B6D00E32289828A83E49322C9
:0E0B7600C3E49FFFE49EFEE49DFDE49CFC2290
:00000001FF
