:03000000020941B1
:0C094100787FE4F6D8FD75810C020800F8
:1008D1005374617274696E672E2E2E004E756D62AF
:1008E1006572206F662043617273005061726B659F
:0308F100643A0066
:10087B00D3EF9400EE6480948040257DFAEDD39401
:10088B00007480948040031D80F37DF8EDD39400B9
:10089B007480948040031D80F3EF1F70D31E80D0B3
:0108AB00222A
:100921008FB0C2A0D2A17F057E0012087BC2A12296
:100931008FB0D2A0D2A17F017E0012087BC2A1227A
:1008AC008B0A8A0B890CAB0AAA0BA90C1208F460F0
:1008BC0013050CE50C7002050B14F91208F4FF1269
:0508CC00093180E22269
:10090D007F0C1209217F381209217F011209217FE5
:04091D00800209212A
:10080000E4F508F509F59012090D7BFF7A0879D116
:100810001208AC7FC87E0012087B7F011209217F7D
:10082000801209217BFF7A0879DD1208AC7FC012A3
:1008300009217BFF7A0879EC1208AC309008050991
:10084000E509700205083092080509E509700205FE
:10085000083094080509E509700205083096080576
:1008600009E50970020508E5092430FF1209317F06
:0B08700080120921E4F508F50980A9B9
:1008F400BB010689828A83E0225002E722BBFE0202
:09090400E32289828A83E4932234
:00000001FF
