:0300000002086D86
:0C086D00787FE4F6D8FD75810702087959
:0C080000C2A6C2B1C2B4D2B77FF47E0120
:10080C00D3EF9400EE6480948040257DFAEDD39470
:10081C00007480948040031D80F37DF8EDD3940028
:10082C007480948040031D80F3EF1F70D31E80D022
:01083C002299
:10083D00D2A0C2A3120800C2A0D2A3120800D2B146
:10084D00C2B4C2B7C2A0C2A3D2A6120808C2B1D206
:10085D00B4C2B7C2A0C2A3D2A67FF47E0102080C17
:0A087900E4F5A0F5B012083D80FB85
:00000001FF
