:03000000020919D9
:0C091900787FE4F6D8FD75810A02080022
:10086A005374617274696E672E2E2E004865792161
:10087A00004920616D20417A617A005468616E6B8B
:0F088A007320466F72205761746368696E670050
:10083900D3EF9400EE6480948040257DFAEDD39443
:10084900007480948040031D80F37DF8EDD39400FB
:100859007480948040031D80F3EF1F70D31E80D0F5
:01086900226C
:0E08BE007FC87E001208397F011208CC7F80AF
:1008CC008FB0C2A0D2A17F057E00120839C2A1222E
:100909008FB0D2A0D2A17F017E00120839C2A122E4
:100899008B088A09890AAB08AA09A90A1208DC6027
:1008A90013050AE50A7002050914F91208DCFF129A
:0508B900090980E222A4
:1008F5007F0C1208CC7F381208CC7F011208CC7F00
:04090500800208CC98
:100800001208F57BFF7A08796A1208991208BE7BF4
:10081000FF7A0879761208997FC01208CC7BFF7A9C
:1008200008797B1208991208BE7BFF7A0879851235
:0908300008997FC87E0002083916
:1008DC00BB010689828A83E0225002E722BBFE021A
:0908EC00E32289828A83E493224D
:00000001FF
