:030000000209CE24
:0C09CE00787FE4F6D8FD75811F0208F662
:1009AA00003F0006005B004F0066006D007D0007F7
:0409BA00007F006F4B
:1009BE00E4F58A758CEED28C308DFDC28CC28D2200
:1008F60074FFF508F509E4F50AF50B780C7C00FDA4
:100906007BFF7A0979AAFE7F141208D0C292C2959B
:10091600758901309243D3E5099408E5086480940B
:1009260080400674FFF508F5090509E5097002051A
:100936000825E0240CF808E6F5A0E4F50AF50B1204
:1009460009BE050BE50B7002050AC39450E50A645F
:1009560080948040EAC295D2923095B7D3E5099447
:1009660000E50864809480500675080075090AE55C
:1009760009150970021508E50925E0240CF808E6B2
:10098600F5A0E4F50AF50B1209BE050BE50B70029E
:10099600050AC39450E50A6480948040EAC292D264
:0409A6009502091994
:10080000E709F608DFFA8046E709F208DFFA803EDA
:1008100088828C83E709F0A3DFFA8032E309F608C7
:10082000DFFA8078E309F208DFFA807088828C832F
:10083000E309F0A3DFFA806489828A83E0A3F608E3
:10084000DFFA805889828A83E0A3F208DFFA804CBD
:1008500080D280FA80C680D4806980F28033801094
:1008600080A680EA809A80A880DA80E280CA8033FD
:1008700089828A83ECFAE493A3C8C582C8CCC58375
:10088000CCF0A3C8C582C8CCC583CCDFE9DEE78045
:100890000D89828A83E493A3F608DFF9ECFAA9F0C4
:1008A000EDFB2289828A83ECFAE0A3C8C582C8CC1A
:1008B000C583CCF0A3C8C582C8CCC583CCDFEADE33
:1008C000E880DB89828A83E493A3F208DFF980CC95
:1008D00088F0EF60010E4E60C388F0ED2402B4048E
:1008E0000050B9F582EB2402B4040050AF23234535
:0608F00082239008507302
:00000001FF
