:030000000209856D
:0C098500787FE4F6D8FD75810B02095460
:1008D900330036003900230032003500380030007B
:1008E9003100340037002A00507265737320616E3D
:0908F90079204B65792E2E2E00AA
:1008A800D3EF9400EE6480948040257DFAEDD394D4
:1008B800007480948040031D80F37DF8EDD394008C
:1008C8007480948040031D80F3EF1F70D31E80D086
:0108D80022FD
:100965008FB0C2A0D2A17F057E001208A8C2A12225
:100975008FB0D2A0D2A17F017E001208A8C2A12209
:100902008B098A0A890BAB09AA0AA90B120927606B
:1009120013050BE50B7002050A14F9120927FF12E1
:05092200097580E222CE
:100940007F0C1209657F381209657F011209657FE6
:0409500080020965B3
:100800007FC0120965C291D292D2932094097BFFD6
:100810007A0879D91209022095097BFF7A0879DBD9
:100820001209022096097BFF7A0879DD120902205D
:1008300097097BFF7A0879DF120902D291C292D21E
:10084000932094097BFF7A0879E112090220950927
:100850007BFF7A0879E31209022096097BFF7A0868
:1008600079E51209022097097BFF7A0879E71209D6
:1008700002D291D292C2932094097BFF7A0879E93F
:100880001209022095097BFF7A0879EB12090220F0
:1008900096097BFF7A0879ED1209022097097BFF00
:0708A0007A0879EF1209024A
:0108A700222E
:100954001209407BFF7A0879F1120902120800801B
:01096400FB97
:10092700BB010689828A83E0225002E722BBFE02CE
:09093700E32289828A83E4932201
:00000001FF
