:03000000020800F3
:0C080000787FE4F6D8FD75810C020847F3
:0E099900436C6F636B2050756C7365733A008E
:0409C800020B00001E
:0608E200D2A17F057E009B
:1008E800D3EF9400EE6480948040257DFAEDD39494
:1008F800007480948040031D80F37DF8EDD394004C
:100908007480948040031D80F3EF1F70D31E80D045
:0109180022BC
:0A09B4008F90C2A01208E2C2A12237
:0309A7002430FFFA
:0A09AA008F90D2A01208E2C2A12231
:100947008B088A09890AAB08AA09A90A12096C60E7
:1009570013050AE50A7002050914F912096CFF125A
:0509670009AA80E22254
:100985007F0C1209B47F381209B47F011209B47FB4
:04099500800209B41F
:10091900EF75F00A84FEEF75F00A84ACF0EE75F01D
:100929000A84ABF0EE75F00A841209A7EB1209A745
:0E093900EC2430FF1209AA7F0A7E000208E8B3
:0300030002088C64
:10088C00C0E0C0F0C083C082C0D075D000C001C031
:10089C0002C003C004C005C006C0077F801209B4A3
:1008AC007BFF7A097999120947B2A7050CE50C7000
:1008BC0002050B7FC01209B4AF0C120919D007D076
:1008CC0006D005D004D003D002D001D0D0D082D035
:0608DC0083D0F0D0E032F1
:0A09BE00120985C2A775A88180FE0A
:10080C000209BEE493A3F8E493A34003F68001F23B
:10081C0008DFF48029E493A3F85407240CC8C333ED
:10082C00C4540F4420C8834004F456800146F6DFBC
:10083C00E4800B01020408102040809009C8E47E7B
:10084C00019360BCA3FF543F30E509541FFEE493B1
:10085C00A360010ECF54C025E060A840B8E493A378
:10086C00FAE493A3F8E493A3C8C582C8CAC583CAA3
:10087C00F0A3C8C582C8CAC583CADFE9DEE780BE5B
:0109CC00002A
:10096C00BB010689828A83E0225002E722BBFE0289
:09097C00E32289828A83E49322BC
:00000001FF
