:03000000020B717F
:0C0B7100787FE4F6D8FD75810A020B289D
:100B4700205600566F6C617467652053656E736934
:060B57006E672E2E2E0039
:060ACC00D2A17F057E00AF
:100AD200D3EF9400EE6480948040257DFAEDD394A8
:100AE200007480948040031D80F37DF8EDD3940060
:100AF2007480948040031D80F3EF1F70D31E80D05A
:010B020022D0
:0A0B7D008FB0C2A0120ACCC2A12260
:0A0B87008FB0D2A0120ACCC2A12246
:100B03008B088A09890AAB08AA09A90A120A65602F
:100B130013050AE50A7002050914F9120A65FF12A2
:050B23000B8780E222B7
:100B5D007F0C120B7D7F38120B7D7F01120B7D7F79
:040B6D0080020B7D7A
:100A8C00C2A4D2A420A5FDC2A3AC90D2A3E41209A7
:100A9C00B07BD77AA379A07840120800E4FBFA79EE
:100AAC008078431209091209E4AC077FC0120B7D50
:100ABC00EC2430FF120B877BFF7A0B7947020B0378
:100B2800120B5D7590FFD2A5D2A3D2A47F80120BC1
:0F0B38007D7BFF7A0B794A120B03120A8C80ED3A
:10080000EC4D6011E8497017ED33EC3304600DE4F2
:10081000FCFFFEFD22E933E8330470F8020A5012AF
:100820000A1B58046009E4CC2481500628500902B0
:100830000A5A284003020A57C0E0EB4A7044B980C4
:1008400006D0E0FB020A46EF4E701CBD8008EBFFAD
:10085000EAFEE9FD80EBE98DF0A4FEE5F00208E98F
:10086000E9CDF9EAFEEBFFEF89F0A4FCE5F0CE89D3
:10087000F0A42EFFE435F0CD89F0A42DFEE435F090
:100880008067EF4E7005BD80D780C3EF8BF0A4ACBE
:10089000F0EE8BF0A42CFCE435F0F8EF8AF0A42CF9
:1008A000E5F038FCE433CB8DF0A42CFCE5F03BF80C
:1008B000EE8AF0A42CFCE5F038F8E433CF89F0A4FC
:1008C0002CFCE5F038CF3400CE89F0A42FFFE5F002
:1008D0003EFEE433C98DF0A42EFEE5F039CD8AF05A
:1008E000A42FFFE5F03EFEE43DFD33D0E0FB5007D2
:1008F0000BBB000F020A5AEC2CFCEF33FFEE33FE69
:06090000ED33FD020A3296
:10090600020A5AEC5D046005E859047003020A50B5
:10091600120A1B580460F6EC4860F2EC7004FDFE07
:10092600FF22C860DB2481C85009C39860025006C4
:10093600020A579850CAF582E9294B4A7005AB82DC
:10094600020A4675F0007C1A7880C3EF9BEE9AED9A
:1009560099400DC3EF9BFFEE9AFEED99FDE842F03C
:10096600DC23ACF0D0E0FFD0E0FED0E0FDAB82208F
:10097600E7101BEB60BAEC2CFCEF33FFEE33FEED19
:1009860033FD020A32E803F830E705C0F075F000DF
:10099600EF2FFFEE33FEED33FD40B830E7C280AAFD
:1009A60075F020800E75F010800575F0087D007ECC
:1009B600007F003392D530D503120A7EEC33401007
:1009C600EF33FFEE33FEED33FDEC33FCD5F0ED22D5
:0E09D600E5F0247EA2D513CC92E7CDCEFF2211
:1009E400EDD2E7CD33EC3392D524814006E4FFFE0B
:1009F400FDFC22FCE4CFCECDCC24E0501174FF806A
:100A0400EDC3CC13CCCD13CDCE13CECF13CF047006
:070A1400F030D5DE020A7E7E
:100A1B00E9D2E7C933E833F892D5EDD2E7CD33EC21
:070A2B0033FC5002B2D5229A
:100A3200EC30E7100FBF000C0EBE00080DBD000425
:100A42000BEB6014A2D5EB13FCED92E7FD2274FFD1
:100A5200FCFDFEFF22E480F8A2D574FF13FC7D802A
:030A6200E480EF3E
:100A6500BB010689828A83E0225002E722BBFE028F
:090A7500E32289828A83E49322C2
:0E0A7E00C3E49FFFE49EFEE49DFDE49CFC2289
:00000001FF
