:03000000020948AA
:0C094800787FE4F6D8FD75810B020800F2
:1008A500D3EF9400EE6480948040257DFAEDD394D7
:1008B500007480948040031D80F37DF8EDD394008F
:1008C5007480948040031D80F3EF1F70D31E80D089
:0108D5002200
:100928008FB0C2A0D2A17F057E001208A5C2A12265
:100938008FB0D2A0D2A17F017E001208A5C2A12249
:1008D6008B088A09890AAB08AA09A90A1208FB60CB
:1008E60013050AE50A7002050914F91208FBFF123E
:0508F600093880E22238
:100914007F0C1209287F381209287F011209287FC9
:04092400800209281C
:10080000120914C295D292C293C294209545309396
:100810001220940FC290D2917F197E001208A5C2B7
:1008200091804320931230940FC290D2917F327EF8
:10083000001208A5C291804530931230940FC290E7
:10084000D2917F4B7E001208A5C2918047C290D200
:100850009180B8309314209411D290C2917F197E68
:10086000001208A5C2907F4B802C20931430941165
:10087000D290C2917F327E001208A5C2907F328052
:100880001530931A309417D290C2917F4B7E00128C
:1008900008A5C2907F197E001208A502080BD2900D
:0508A000C29102080BEB
:1008FB00BB010689828A83E0225002E722BBFE02FB
:09090B00E32289828A83E493222D
:00000001FF
